:100000000C9453000C947B000C947B000C947B00AC
:100010000C947B000C947B000C947B000C947B0074
:100020000C947B000C947B000C947B000C947B0064
:100030000C947B000C947B000C947B000C947B0054
:100040000C9434030C947B000C9402030C94DC029B
:100050000C947B000C947B000C947B000C947B0034
:100060000C947B000C947B0000000000250028000D
:100070002B0000000000240027002A0004040404D0
:100080000404040402020202020203030303030342
:10009000010204081020408001020408102001021F
:1000A00004081020800411241FBECFEFD8E0DEBF6B
:1000B000CDBF11E0A0E0B1E0E6E2FEE002C00590B5
:1000C0000D92A833B107D9F721E0A8E3B1E001C050
:1000D0001D92AE3DB207E1F710E0C3E5D0E004C0E9
:1000E0002197FE010E940B07C235D107C9F70E9474
:1000F0007E030C9411070C940000AF92BF92CF9234
:10010000DF92EF92FF920F931F93CF93DF936C01D7
:100110007B018B01040F151FEB015E01AE18BF08B8
:10012000C017D10759F06991D601ED91FC9101906A
:10013000F081E02DC6010995892B79F7C501DF9182
:10014000CF911F910F91FF90EF90DF90CF90BF90D4
:10015000AF900895FC01538D448D252F30E0842FFE
:1001600090E0821B930B541710F0CF9608950197DF
:100170000895FC01918D828D981761F0A28DAE0FCC
:10018000BF2FB11D5D968C91928D9F5F9F73928F53
:1001900090E008958FEF9FEF0895FC01918D828D7F
:1001A000981731F0828DE80FF11D858D90E008954C
:1001B0008FEF9FEF0895FC01918D228D892F90E0A4
:1001C000805C9F4F821B91098F739927089581E46A
:1001D00091E00E94DB0021E0892B09F420E0822FCE
:1001E000089580E090E0892B29F00E94E7008111BA
:1001F0000C9400000895FC01A48DA80FB92FB11D27
:10020000A35ABF4F2C91848D90E001968F7399274C
:10021000848FA689B7892C93A089B1898C9183702A
:1002200080648C93938D848D981306C00288F38923
:10023000E02D80818F7D80830895EF92FF920F9350
:100240001F93CF93DF93EC0181E0888F9B8D8C8D82
:1002500098131AC0E889F989808185FF15C09FB776
:10026000F894EE89FF896083E889F9898081837039
:10027000806480839FBF81E090E0DF91CF911F91E8
:100280000F91FF90EF900895F62E0B8D10E00F5F09
:100290001F4F0F731127E02E8C8D8E110CC00FB6DF
:1002A00007FCFACFE889F989808185FFF5CFCE0177
:1002B0000E94FB00F1CFEB8DEC0FFD2FF11DE35AF7
:1002C000FF4FF0829FB7F8940B8FEA89FB898081FA
:1002D0008062CFCFCF93DF93EC01888D8823B9F074
:1002E000AA89BB89E889F9898C9185FD03C0808141
:1002F00086FD0DC00FB607FCF7CF8C9185FFF2CFBE
:10030000808185FFEDCFCE010E94FB00E9CFDF9118
:10031000CF9108953FB7F89480913D0190913E01AF
:10032000A0913F01B091400126B5A89B05C02F3F89
:1003300019F00196A11DB11D3FBFBA2FA92F982F0B
:100340008827BC01CD01620F711D811D911D42E006
:10035000660F771F881F991F4A95D1F70895FC01F2
:1003600001900020E9F73197AF01481B590BBC0100
:1003700081E491E00C947D008F929F92AF92BF92A6
:100380000F931F93CF93DF93CDB7DEB7A1970FB62F
:10039000F894DEBF0FBECDBF19A2423008F44AE088
:1003A0008E010F5D1F4F842E912CB12CA12CA50125
:1003B00094010E94E906E62FB901CA01EA30F4F47B
:1003C000E05DD801EE938D01232B242B252B79F7AB
:1003D00090E080E0109719F0CD010E94AF01A19646
:1003E0000FB6F894DEBF0FBECDBFDF91CF911F9146
:1003F0000F91BF90AF909F908F900895E95CE1CFEF
:100400004F925F926F927F928F929F92AF92BF9224
:10041000CF92DF92EF92FF920F931F93CF936B01D6
:100420007C01742EAC019B010E94E406882399F0A4
:1004300082E191E0CF911F910F91FF90EF90DF90BB
:10044000CF90BF90AF909F908F907F906F905F9074
:100450004F900C94AF0146015701E894B7F82FEF85
:100460003FEF4FE75FE7C501B4010E94E406811149
:100470000DC02FEF3FEF4FE75FE7C501B4010E94CA
:100480001A0518161CF486E191E0D4CF2FEF3FEF48
:100490004FE75FE4C701B6010E94720618161CF40C
:1004A0008AE191E0C7CF2FEF3FEF4FE75FECC70145
:1004B000B6010E941A0587FDF3CF20E030E0A901C4
:1004C000C701B6010E941A0510E000E087FF0AC0CC
:1004D0006DE281E491E00E941D018C01F7FAF09435
:1004E000F7F8F094C0E060E070E080E09FE37C16F5
:1004F00041F020E030E040E251E40E941F05CF5F70
:10050000F6CFA70196010E94AE042B013C010E9488
:1005100091054B015C014AE00E94BC017C01E00EA8
:10052000F11ECC23C1F1C501B4010E94C0059B019D
:10053000AC01C301B2010E94AD044B015C016EE24B
:1005400081E491E00E941D01E80EF91EC15018F1EE
:1005500020E030E040E251E4C501B4010E9477069A
:100560002B013C010E9491054B01B12CA12C4AE0CA
:10057000C501B4010E94BC01E80EF91EC501B40119
:100580000E94C0059B01AC01C301B2010E94AD04F1
:100590004B015C01DBCFC701CF911F910F91FF9001
:1005A000EF90DF90CF90BF90AF909F908F907F9013
:1005B0006F905F904F9008951F920F920FB60F9219
:1005C00011242F933F934F935F936F937F938F9358
:1005D0009F93AF93BF93EF93FF9381E491E00E94C9
:1005E000FB00FF91EF91BF91AF919F918F917F9110
:1005F0006F915F914F913F912F910F900FBE0F9090
:100600001F9018951F920F920FB60F9211242F93DF
:100610008F939F93EF93FF93E0915101F0915201DB
:100620008081E0915701F091580182FD1BC09081BB
:1006300080915A018F5F8F7320915B01821741F087
:10064000E0915A01F0E0EF5BFE4F958F80935A01E5
:10065000FF91EF919F918F912F910F900FBE0F906F
:100660001F9018958081F4CF1F920F920FB60F92B2
:1006700011242F933F938F939F93AF93BF938091B8
:10068000390190913A01A0913B01B0913C01309128
:10069000380123E0230F2D3758F50196A11DB11D18
:1006A000209338018093390190933A01A0933B0144
:1006B000B0933C0180913D0190913E01A0913F019A
:1006C000B09140010196A11DB11D80933D01909311
:1006D0003E01A0933F01B0934001BF91AF919F9124
:1006E0008F913F912F910F900FBE0F901F901895F3
:1006F00026E8230F0296A11DB11DD2CF789484B5B0
:10070000826084BD84B5816084BD85B5826085BD0D
:1007100085B5816085BD80916E00816080936E009B
:10072000109281008091810082608093810080918D
:10073000810081608093810080918000816080933E
:1007400080008091B10084608093B1008091B000FE
:1007500081608093B00080917A00846080937A00F9
:1007600080917A00826080937A0080917A00816023
:1007700080937A0080917A00806880937A0010924A
:10078000C100EEE9F0E02491EAE8F0E084918823EA
:10079000C1F090E0880F991FFC01EE58FF4FC59102
:1007A000D491FC01E859FF4FA591B4919FB7F894FB
:1007B0008881E22FE0958E2388838C91E823EC9347
:1007C0009FBFE0915101F091520182E08083E0915E
:1007D0004D01F0914E011082E0914F01F0915001D6
:1007E0008FEC808310925901E0915501F0915601F0
:1007F00086E08083E0915301F09154018081806113
:100800008083E0915301F09154018081886080835E
:10081000E0915301F0915401808180688083E091E0
:100820005301F091540180818F7D808310E4C0E0FA
:10083000D0E00E948A014B015C0184EFC82EDD24C8
:10084000D394E12CF12C0E948A01681979098A0954
:100850009B09683E734081059105A8F321E0C21A07
:10086000D108E108F10888EE880E83E0981EA11CEB
:10087000B11CC114D104E104F10429F710937C00E8
:1008800080917A00806480937A0080917A0086FD5E
:10089000FCCF8091780060917900762F682F072E29
:1008A000000C880B990B0E94C2056B017C018EE144
:1008B00091E00E94AF0120E030E04AEB52E4C70132
:1008C000B6010E94770620E030EC4FE754E40E9426
:1008D0001F0542E00E94000284E391E00E94AF0104
:1008E00042E0C701B6010E940002209709F4A1CF9F
:1008F0000E94E700882309F49CCF0E94000099CF52
:10090000E1E4F1E01382128288EE93E0A0E0B0E02F
:1009100084839583A683B78384E091E09183808369
:1009200085EC90E09587848784EC90E097878687B4
:1009300080EC90E0918B808B81EC90E0938B828BAC
:1009400082EC90E0958B848B86EC90E0978B868B85
:10095000118E128E138E148E08955058BB27AA271D
:100960000E94C5040C9438060E942A0638F00E94A2
:10097000310620F039F49F3F19F426F40C94270631
:100980000EF4E095E7FB0C942106E92F0E9449063E
:1009900058F3BA17620773078407950720F079F4B4
:1009A000A6F50C946B060EF4E0950B2EBA2FA02D35
:1009B0000B01B90190010C01CA01A0011124FF270C
:1009C000591B99F0593F50F4503E68F11A16F04007
:1009D000A22F232F342F4427585FF3CF4695379506
:1009E0002795A795F0405395C9F77EF41F16BA0BCB
:1009F000620B730B840BBAF09150A1F0FF0FBB1F79
:100A0000661F771F881FC2F70EC0BA0F621F731FC1
:100A1000841F48F4879577956795B795F7959E3F1E
:100A200008F0B0CF9395880F08F09927EE0F9795AF
:100A3000879508950E94FD0508F481E008950E94BD
:100A400033050C9438060E94310658F00E942A069D
:100A500040F029F45F3F29F00C94210651110C94C9
:100A60006C060C9427060E94490668F39923B1F39B
:100A7000552391F3951B550BBB27AA2762177307C4
:100A8000840738F09F5F5F4F220F331F441FAA1F58
:100A9000A9F335D00E2E3AF0E0E832D09150504014
:100AA000E695001CCAF72BD0FE2F29D0660F771FC2
:100AB000881FBB1F261737074807AB07B0E809F0A8
:100AC000BB0B802DBF01FF2793585F4F3AF09E3F2D
:100AD000510578F00C9421060C946C065F3FE4F30A
:100AE000983ED4F3869577956795B795F7959F5F70
:100AF000C9F7880F911D9695879597F90895E1E0BC
:100B0000660F771F881FBB1F621773078407BA071A
:100B100020F0621B730B840BBA0BEE1F88F7E09575
:100B200008950E94510688F09F5798F0B92F992791
:100B3000B751B0F0E1F0660F771F881F991F1AF0C8
:100B4000BA95C9F714C0B13091F00E946B06B1E0BC
:100B500008950C946B06672F782F8827B85F39F0BB
:100B6000B93FCCF3869577956795B395D9F73EF461
:100B700090958095709561957F4F8F4F9F4F089509
:100B8000E89409C097FB3EF4909580957095619527
:100B90007F4F8F4F9F4F9923A9F0F92F96E9BB27DD
:100BA0009395F695879577956795B795F111F8CF59
:100BB000FAF4BB0F11F460FF1BC06F5F7F4F8F4FC4
:100BC0009F4F16C0882311F096E911C0772321F0BA
:100BD0009EE8872F762F05C0662371F096E8862F52
:100BE00070E060E02AF09A95660F771F881FDAF7A9
:100BF000880F9695879597F90895990F0008550FD6
:100C0000AA0BE0E8FEEF16161706E807F907C0F092
:100C100012161306E407F50798F0621B730B840B9A
:100C2000950B39F40A2661F0232B242B252B21F474
:100C300008950A2609F4A140A6958FEF811D811D14
:100C4000089597F99F6780E870E060E008959FEF4E
:100C500080EC089500240A94161617061806090653
:100C6000089500240A941216130614060506089522
:100C7000092E0394000C11F4882352F0BB0F40F4AA
:100C8000BF2B11F460FF04C06F5F7F4F8F4F9F4FEA
:100C9000089557FD9058440F551F59F05F3F71F06C
:100CA0004795880F97FB991F61F09F3F79F08795D3
:100CB0000895121613061406551FF2CF4695F1DF5C
:100CC00008C0161617061806991FF1CF86957105EC
:100CD000610508940895E894BB2766277727CB0120
:100CE00097F908950E94FD0508F48FEF08950E947A
:100CF0008A060C9438060E942A0638F00E943106B3
:100D000020F0952311F00C9421060C942706112451
:100D10000C946C060E94490670F3959FC1F3950FE1
:100D200050E0551F629FF001729FBB27F00DB11D6F
:100D3000639FAA27F00DB11DAA1F649F6627B00DFF
:100D4000A11D661F829F2227B00DA11D621F739FE8
:100D5000B00DA11D621F839FA00D611D221F749FF6
:100D60003327A00D611D231F849F600D211D822F3D
:100D7000762F6A2F11249F5750409AF0F1F0882364
:100D80004AF0EE0FFF1FBB1F661F771F881F915091
:100D90005040A9F79E3F510580F00C9421060C9419
:100DA0006C065F3FE4F3983ED4F38695779567959C
:100DB000B795F795E7959F5FC1F7FE2B880F911DBB
:100DC0009695879597F908950E94FD05880B990BD4
:100DD0000895A1E21A2EAA1BBB1BFD010DC0AA1F7C
:100DE000BB1FEE1FFF1FA217B307E407F50720F094
:100DF000A21BB30BE40BF50B661F771F881F991F0F
:100E00001A9469F760957095809590959B01AC0157
:100E1000BD01CF010895EE0FFF1F0590F491E02D65
:060E20000994F894FFCFD5
:100E2600000000001D017D00AA006A01DB00B90078
:100E3600CD006E616E00696E66006F7666004C616D
:100E46002074656D706572617475726120657320BA
:080E5600646520000D0A000094
:00000001FF
